{
  "contractName": "FundraiserRegistry",
  "abi": [
    {
      "inputs": [],
      "stateMutability": "nonpayable",
      "type": "constructor"
    },
    {
      "inputs": [
        {
          "internalType": "uint256",
          "name": "",
          "type": "uint256"
        }
      ],
      "name": "fundraisers",
      "outputs": [
        {
          "internalType": "address",
          "name": "",
          "type": "address"
        }
      ],
      "stateMutability": "view",
      "type": "function"
    },
    {
      "inputs": [],
      "name": "owner",
      "outputs": [
        {
          "internalType": "address",
          "name": "",
          "type": "address"
        }
      ],
      "stateMutability": "view",
      "type": "function"
    },
    {
      "inputs": [
        {
          "internalType": "address",
          "name": "fundraiserAddress",
          "type": "address"
        }
      ],
      "name": "registerFundraiser",
      "outputs": [],
      "stateMutability": "nonpayable",
      "type": "function"
    },
    {
      "inputs": [],
      "name": "getFundraisers",
      "outputs": [
        {
          "internalType": "address[]",
          "name": "",
          "type": "address[]"
        }
      ],
      "stateMutability": "view",
      "type": "function"
    },
    {
      "inputs": [
        {
          "internalType": "address",
          "name": "fundraiserAddress",
          "type": "address"
        }
      ],
      "name": "removeFundraiser",
      "outputs": [],
      "stateMutability": "nonpayable",
      "type": "function"
    }
  ],
  "bytecode": "0x608060405234801561000f575f80fd5b50335f806101000a81548173ffffffffffffffffffffffffffffffffffffffff021916908373ffffffffffffffffffffffffffffffffffffffff1602179055506107008061005c5f395ff3fe608060405234801561000f575f80fd5b5060043610610055575f3560e01c80638da5cb5b146100595780638e028d40146100775780638f03340d14610095578063d19be685146100b1578063f38f72fb146100cd575b5f80fd5b6100616100fd565b60405161006e9190610422565b60405180910390f35b61007f610120565b60405161008c91906104f2565b60405180910390f35b6100af60048036038101906100aa9190610540565b6101ab565b005b6100cb60048036038101906100c69190610540565b610345565b005b6100e760048036038101906100e2919061059e565b6103a8565b6040516100f49190610422565b60405180910390f35b5f8054906101000a900473ffffffffffffffffffffffffffffffffffffffff1681565b606060018054806020026020016040519081016040528092919081815260200182805480156101a157602002820191905f5260205f20905b815f9054906101000a900473ffffffffffffffffffffffffffffffffffffffff1673ffffffffffffffffffffffffffffffffffffffff1681526020019060010190808311610158575b5050505050905090565b5f5b600180549050811015610341578173ffffffffffffffffffffffffffffffffffffffff16600182815481106101e5576101e46105c9565b5b905f5260205f20015f9054906101000a900473ffffffffffffffffffffffffffffffffffffffff1673ffffffffffffffffffffffffffffffffffffffff160361032e57600180805490506102399190610623565b8110156102e55760018080805490506102529190610623565b81548110610263576102626105c9565b5b905f5260205f20015f9054906101000a900473ffffffffffffffffffffffffffffffffffffffff166001828154811061029f5761029e6105c9565b5b905f5260205f20015f6101000a81548173ffffffffffffffffffffffffffffffffffffffff021916908373ffffffffffffffffffffffffffffffffffffffff1602179055505b60018054806102f7576102f6610656565b5b600190038181905f5260205f20015f6101000a81549073ffffffffffffffffffffffffffffffffffffffff02191690559055610341565b808061033990610683565b9150506101ad565b5050565b600181908060018154018082558091505060019003905f5260205f20015f9091909190916101000a81548173ffffffffffffffffffffffffffffffffffffffff021916908373ffffffffffffffffffffffffffffffffffffffff16021790555050565b600181815481106103b7575f80fd5b905f5260205f20015f915054906101000a900473ffffffffffffffffffffffffffffffffffffffff1681565b5f73ffffffffffffffffffffffffffffffffffffffff82169050919050565b5f61040c826103e3565b9050919050565b61041c81610402565b82525050565b5f6020820190506104355f830184610413565b92915050565b5f81519050919050565b5f82825260208201905092915050565b5f819050602082019050919050565b61046d81610402565b82525050565b5f61047e8383610464565b60208301905092915050565b5f602082019050919050565b5f6104a08261043b565b6104aa8185610445565b93506104b583610455565b805f5b838110156104e55781516104cc8882610473565b97506104d78361048a565b9250506001810190506104b8565b5085935050505092915050565b5f6020820190508181035f83015261050a8184610496565b905092915050565b5f80fd5b61051f81610402565b8114610529575f80fd5b50565b5f8135905061053a81610516565b92915050565b5f6020828403121561055557610554610512565b5b5f6105628482850161052c565b91505092915050565b5f819050919050565b61057d8161056b565b8114610587575f80fd5b50565b5f8135905061059881610574565b92915050565b5f602082840312156105b3576105b2610512565b5b5f6105c08482850161058a565b91505092915050565b7f4e487b71000000000000000000000000000000000000000000000000000000005f52603260045260245ffd5b7f4e487b71000000000000000000000000000000000000000000000000000000005f52601160045260245ffd5b5f61062d8261056b565b91506106388361056b565b92508282039050818111156106505761064f6105f6565b5b92915050565b7f4e487b71000000000000000000000000000000000000000000000000000000005f52603160045260245ffd5b5f61068d8261056b565b91507fffffffffffffffffffffffffffffffffffffffffffffffffffffffffffffffff82036106bf576106be6105f6565b5b60018201905091905056fea2646970667358221220c4f76d58171e77cf9724a88245f41370d9af711abcedf7619f4d19540e41295164736f6c63430008140033",
  "immutableReferences": {},
  "source": "// SPDX-License-Identifier: MIT\r\npragma solidity ^0.8.0;\r\n\r\ncontract FundraiserRegistry {\r\n    address public owner;\r\n    address[] public fundraisers;\r\n\r\n    constructor() {\r\n        owner = msg.sender;\r\n    }\r\n\r\n    function registerFundraiser(address fundraiserAddress) external {\r\n        fundraisers.push(fundraiserAddress);\r\n    }\r\n\r\n    function getFundraisers() external view returns (address[] memory) {\r\n        return fundraisers;\r\n    }\r\n\r\n    function removeFundraiser(address fundraiserAddress) external {\r\n        for (uint256 i = 0; i < fundraisers.length; i++) {\r\n            if (fundraisers[i] == fundraiserAddress) {\r\n                if (i < fundraisers.length - 1) {\r\n                    fundraisers[i] = fundraisers[fundraisers.length - 1];\r\n                }\r\n                fundraisers.pop();\r\n                break;\r\n            }\r\n        }\r\n    }\r\n}\r\n",
  "sourcePath": "C:\\Users\\joshb\\OneDrive\\Desktop\\dApp1\\solidityDApp\\react-app\\smartCon\\contracts\\Registry.sol",
  "compiler": {
    "name": "solc",
    "version": "0.8.20+commit.a1b79de6.Emscripten.clang"
  },
  "schemaVersion": "3.4.14",
  "updatedAt": "2023-08-08T00:50:13.222Z",
  "devdoc": {
    "kind": "dev",
    "methods": {},
    "version": 1
  },
  "userdoc": {
    "kind": "user",
    "methods": {},
    "version": 1
  }
}